{
	"FARMING/library/Whitelist.sol": {
		"Whitelist": {
			"abi": [
				{
					"anonymous": false,
					"inputs": [],
					"name": "DisableWhitelist",
					"type": "event"
				},
				{
					"anonymous": false,
					"inputs": [],
					"name": "EnableWhitelist",
					"type": "event"
				},
				{
					"anonymous": false,
					"inputs": [
						{
							"indexed": true,
							"internalType": "address",
							"name": "previousOwner",
							"type": "address"
						},
						{
							"indexed": true,
							"internalType": "address",
							"name": "newOwner",
							"type": "address"
						}
					],
					"name": "OwnershipTransferred",
					"type": "event"
				},
				{
					"anonymous": false,
					"inputs": [
						{
							"indexed": true,
							"internalType": "address",
							"name": "_address",
							"type": "address"
						},
						{
							"indexed": false,
							"internalType": "bool",
							"name": "whitelist",
							"type": "bool"
						}
					],
					"name": "Whitelisted",
					"type": "event"
				},
				{
					"inputs": [
						{
							"internalType": "bool",
							"name": "disable",
							"type": "bool"
						}
					],
					"name": "disableWhitelist",
					"outputs": [],
					"stateMutability": "nonpayable",
					"type": "function"
				},
				{
					"inputs": [
						{
							"internalType": "address",
							"name": "_address",
							"type": "address"
						}
					],
					"name": "isWhitelist",
					"outputs": [
						{
							"internalType": "bool",
							"name": "",
							"type": "bool"
						}
					],
					"stateMutability": "view",
					"type": "function"
				},
				{
					"inputs": [],
					"name": "owner",
					"outputs": [
						{
							"internalType": "address",
							"name": "",
							"type": "address"
						}
					],
					"stateMutability": "view",
					"type": "function"
				},
				{
					"inputs": [],
					"name": "renounceOwnership",
					"outputs": [],
					"stateMutability": "nonpayable",
					"type": "function"
				},
				{
					"inputs": [
						{
							"internalType": "address",
							"name": "_address",
							"type": "address"
						},
						{
							"internalType": "bool",
							"name": "_on",
							"type": "bool"
						}
					],
					"name": "setWhitelist",
					"outputs": [],
					"stateMutability": "nonpayable",
					"type": "function"
				},
				{
					"inputs": [
						{
							"internalType": "address",
							"name": "newOwner",
							"type": "address"
						}
					],
					"name": "transferOwnership",
					"outputs": [],
					"stateMutability": "nonpayable",
					"type": "function"
				}
			],
			"devdoc": {
				"kind": "dev",
				"methods": {
					"owner()": {
						"details": "Returns the address of the current owner."
					},
					"renounceOwnership()": {
						"details": "Leaves the contract without owner. It will not be possible to call `onlyOwner` functions anymore. Can only be called by the current owner. NOTE: Renouncing ownership will leave the contract without an owner, thereby removing any functionality that is only available to the owner."
					},
					"transferOwnership(address)": {
						"details": "Transfers ownership of the contract to a new account (`newOwner`). Can only be called by the current owner."
					}
				},
				"version": 1
			},
			"evm": {
				"assembly": "    /* \"FARMING/library/Whitelist.sol\":98:1121  contract Whitelist is Ownable {\r... */\n  mstore(0x40, 0x80)\n  callvalue\n  dup1\n  iszero\n  tag_1\n  jumpi\n  0x00\n  dup1\n  revert\ntag_1:\n  pop\n    /* \"FARMING/access/Ownable.sol\":901:918  address msgSender */\n  0x00\n    /* \"FARMING/access/Ownable.sol\":921:933  _msgSender() */\n  tag_6\n    /* \"FARMING/access/Ownable.sol\":921:931  _msgSender */\n  tag_7\n    /* \"FARMING/access/Ownable.sol\":921:933  _msgSender() */\n  jump\t// in\ntag_6:\n    /* \"FARMING/access/Ownable.sol\":944:950  _owner */\n  0x00\n    /* \"FARMING/access/Ownable.sol\":944:962  _owner = msgSender */\n  dup1\n  sload\n  not(sub(shl(0xa0, 0x01), 0x01))\n  and\n  sub(shl(0xa0, 0x01), 0x01)\n  dup4\n  and\n  swap1\n  dup2\n  or\n  dup3\n  sstore\n    /* \"FARMING/access/Ownable.sol\":978:1021  OwnershipTransferred(address(0), msgSender) */\n  mload(0x40)\n    /* \"FARMING/access/Ownable.sol\":944:962  _owner = msgSender */\n  swap3\n  swap4\n  pop\n  swap2\n    /* \"FARMING/access/Ownable.sol\":978:1021  OwnershipTransferred(address(0), msgSender) */\n  0x8be0079c531659141344cd1fd0a4f28419497f9722a3daafe3b4186f6b6457e0\n  swap1\n    /* \"FARMING/access/Ownable.sol\":944:950  _owner */\n  dup3\n  swap1\n    /* \"FARMING/access/Ownable.sol\":978:1021  OwnershipTransferred(address(0), msgSender) */\n  log3\n    /* \"FARMING/access/Ownable.sol\":867:1029  constructor() internal {\r... */\n  pop\n    /* \"FARMING/library/Whitelist.sol\":98:1121  contract Whitelist is Ownable {\r... */\n  jump(tag_8)\n    /* \"FARMING/access/Context.sol\":799:897  function _msgSender() internal view returns (address payable) {\r... */\ntag_7:\n    /* \"FARMING/access/Context.sol\":879:889  msg.sender */\n  caller\n    /* \"FARMING/access/Context.sol\":799:897  function _msgSender() internal view returns (address payable) {\r... */\n  swap1\n  jump\t// out\n    /* \"FARMING/library/Whitelist.sol\":98:1121  contract Whitelist is Ownable {\r... */\ntag_8:\n  dataSize(sub_0)\n  dup1\n  dataOffset(sub_0)\n  0x00\n  codecopy\n  0x00\n  return\nstop\n\nsub_0: assembly {\n        /* \"FARMING/library/Whitelist.sol\":98:1121  contract Whitelist is Ownable {\r... */\n      mstore(0x40, 0x80)\n      callvalue\n      dup1\n      iszero\n      tag_1\n      jumpi\n      0x00\n      dup1\n      revert\n    tag_1:\n      pop\n      jumpi(tag_2, lt(calldatasize, 0x04))\n      shr(0xe0, calldataload(0x00))\n      dup1\n      0x49ba1b49\n      eq\n      tag_3\n      jumpi\n      dup1\n      0x53d6fd59\n      eq\n      tag_4\n      jumpi\n      dup1\n      0x715018a6\n      eq\n      tag_5\n      jumpi\n      dup1\n      0x8da5cb5b\n      eq\n      tag_6\n      jumpi\n      dup1\n      0xc683630d\n      eq\n      tag_7\n      jumpi\n      dup1\n      0xf2fde38b\n      eq\n      tag_8\n      jumpi\n    tag_2:\n      0x00\n      dup1\n      revert\n        /* \"FARMING/library/Whitelist.sol\":894:1118  function disableWhitelist(bool disable) external onlyOwner {\r... */\n    tag_3:\n      tag_9\n      0x04\n      dup1\n      calldatasize\n      sub\n      0x20\n      dup2\n      lt\n      iszero\n      tag_10\n      jumpi\n      0x00\n      dup1\n      revert\n    tag_10:\n      pop\n      calldataload\n      iszero\n      iszero\n      tag_11\n      jump\t// in\n    tag_9:\n      stop\n        /* \"FARMING/library/Whitelist.sol\":728:886  function setWhitelist(address _address, bool _on) external onlyOwner {\r... */\n    tag_4:\n      tag_9\n      0x04\n      dup1\n      calldatasize\n      sub\n      0x40\n      dup2\n      lt\n      iszero\n      tag_13\n      jumpi\n      0x00\n      dup1\n      revert\n    tag_13:\n      pop\n      sub(shl(0xa0, 0x01), 0x01)\n      dup2\n      calldataload\n      and\n      swap1\n      0x20\n      add\n      calldataload\n      iszero\n      iszero\n      tag_14\n      jump\t// in\n        /* \"FARMING/access/Ownable.sol\":1752:1892  function renounceOwnership() public onlyOwner {\r... */\n    tag_5:\n      tag_9\n      tag_16\n      jump\t// in\n        /* \"FARMING/access/Ownable.sol\":1110:1189  function owner() public view returns (address) {\r... */\n    tag_6:\n      tag_17\n      tag_18\n      jump\t// in\n    tag_17:\n      0x40\n      dup1\n      mload\n      sub(shl(0xa0, 0x01), 0x01)\n      swap1\n      swap3\n      and\n      dup3\n      mstore\n      mload\n      swap1\n      dup2\n      swap1\n      sub\n      0x20\n      add\n      swap1\n      return\n        /* \"FARMING/library/Whitelist.sol\":608:720  function isWhitelist(address _address) public view returns (bool) {\r... */\n    tag_7:\n      tag_19\n      0x04\n      dup1\n      calldatasize\n      sub\n      0x20\n      dup2\n      lt\n      iszero\n      tag_20\n      jumpi\n      0x00\n      dup1\n      revert\n    tag_20:\n      pop\n      calldataload\n      sub(shl(0xa0, 0x01), 0x01)\n      and\n      tag_21\n      jump\t// in\n    tag_19:\n      0x40\n      dup1\n      mload\n      swap2\n      iszero\n      iszero\n      dup3\n      mstore\n      mload\n      swap1\n      dup2\n      swap1\n      sub\n      0x20\n      add\n      swap1\n      return\n        /* \"FARMING/access/Ownable.sol\":2047:2156  function transferOwnership(address newOwner) public onlyOwner {\r... */\n    tag_8:\n      tag_9\n      0x04\n      dup1\n      calldatasize\n      sub\n      0x20\n      dup2\n      lt\n      iszero\n      tag_23\n      jumpi\n      0x00\n      dup1\n      revert\n    tag_23:\n      pop\n      calldataload\n      sub(shl(0xa0, 0x01), 0x01)\n      and\n      tag_24\n      jump\t// in\n        /* \"FARMING/library/Whitelist.sol\":894:1118  function disableWhitelist(bool disable) external onlyOwner {\r... */\n    tag_11:\n        /* \"FARMING/access/Ownable.sol\":1332:1344  _msgSender() */\n      tag_26\n        /* \"FARMING/access/Ownable.sol\":1332:1342  _msgSender */\n      tag_27\n        /* \"FARMING/access/Ownable.sol\":1332:1344  _msgSender() */\n      jump\t// in\n    tag_26:\n        /* \"FARMING/access/Ownable.sol\":1322:1328  _owner */\n      sload(0x00)\n      sub(shl(0xa0, 0x01), 0x01)\n      swap1\n      dup2\n      and\n        /* \"FARMING/access/Ownable.sol\":1322:1344  _owner == _msgSender() */\n      swap2\n      and\n      eq\n        /* \"FARMING/access/Ownable.sol\":1314:1381  require(_owner == _msgSender(), 'Ownable: caller is not the owner') */\n      tag_28\n      jumpi\n      0x40\n      dup1\n      mload\n      shl(0xe5, 0x461bcd)\n      dup2\n      mstore\n      0x20\n      0x04\n      dup3\n      add\n      dup2\n      swap1\n      mstore\n      0x24\n      dup3\n      add\n      mstore\n      0x00\n      dup1\n      mload\n      0x20\n      data_9924ebdf1add33d25d4ef888e16131f0a5687b0580a36c21b5c301a6c462effe\n      dup4\n      codecopy\n      dup2\n      mload\n      swap2\n      mstore\n      0x44\n      dup3\n      add\n      mstore\n      swap1\n      mload\n      swap1\n      dup2\n      swap1\n      sub\n      0x64\n      add\n      swap1\n      revert\n    tag_28:\n        /* \"FARMING/library/Whitelist.sol\":964:972  _disable */\n      0x02\n        /* \"FARMING/library/Whitelist.sol\":964:982  _disable = disable */\n      dup1\n      sload\n      not(0xff)\n      and\n      dup3\n      iszero\n      dup1\n      iszero\n      swap2\n      swap1\n      swap2\n      or\n      swap1\n      swap2\n      sstore\n        /* \"FARMING/library/Whitelist.sol\":993:1111  if (disable) {\r... */\n      tag_30\n      jumpi\n        /* \"FARMING/library/Whitelist.sol\":1026:1044  DisableWhitelist() */\n      mload(0x40)\n      0x508560e15717a4e9058b9a19d806cb679004a1bd953376f71fda71c141e5dc53\n      swap1\n      0x00\n      swap1\n      log1\n        /* \"FARMING/library/Whitelist.sol\":993:1111  if (disable) {\r... */\n      jump(tag_31)\n    tag_30:\n        /* \"FARMING/library/Whitelist.sol\":1082:1099  EnableWhitelist() */\n      mload(0x40)\n      0xa2927d972f7cfc5ff8b7ad79f9adf0bdb885d0e569f40d0037df2e1299616ae0\n      swap1\n      0x00\n      swap1\n      log1\n        /* \"FARMING/library/Whitelist.sol\":993:1111  if (disable) {\r... */\n    tag_31:\n        /* \"FARMING/library/Whitelist.sol\":894:1118  function disableWhitelist(bool disable) external onlyOwner {\r... */\n      pop\n      jump\t// out\n        /* \"FARMING/library/Whitelist.sol\":728:886  function setWhitelist(address _address, bool _on) external onlyOwner {\r... */\n    tag_14:\n        /* \"FARMING/access/Ownable.sol\":1332:1344  _msgSender() */\n      tag_33\n        /* \"FARMING/access/Ownable.sol\":1332:1342  _msgSender */\n      tag_27\n        /* \"FARMING/access/Ownable.sol\":1332:1344  _msgSender() */\n      jump\t// in\n    tag_33:\n        /* \"FARMING/access/Ownable.sol\":1322:1328  _owner */\n      sload(0x00)\n      sub(shl(0xa0, 0x01), 0x01)\n      swap1\n      dup2\n      and\n        /* \"FARMING/access/Ownable.sol\":1322:1344  _owner == _msgSender() */\n      swap2\n      and\n      eq\n        /* \"FARMING/access/Ownable.sol\":1314:1381  require(_owner == _msgSender(), 'Ownable: caller is not the owner') */\n      tag_34\n      jumpi\n      0x40\n      dup1\n      mload\n      shl(0xe5, 0x461bcd)\n      dup2\n      mstore\n      0x20\n      0x04\n      dup3\n      add\n      dup2\n      swap1\n      mstore\n      0x24\n      dup3\n      add\n      mstore\n      0x00\n      dup1\n      mload\n      0x20\n      data_9924ebdf1add33d25d4ef888e16131f0a5687b0580a36c21b5c301a6c462effe\n      dup4\n      codecopy\n      dup2\n      mload\n      swap2\n      mstore\n      0x44\n      dup3\n      add\n      mstore\n      swap1\n      mload\n      swap1\n      dup2\n      swap1\n      sub\n      0x64\n      add\n      swap1\n      revert\n    tag_34:\n      sub(shl(0xa0, 0x01), 0x01)\n        /* \"FARMING/library/Whitelist.sol\":808:828  _whitelist[_address] */\n      dup3\n      and\n      0x00\n      dup2\n      dup2\n      mstore\n        /* \"FARMING/library/Whitelist.sol\":808:818  _whitelist */\n      0x01\n        /* \"FARMING/library/Whitelist.sol\":808:828  _whitelist[_address] */\n      0x20\n      swap1\n      dup2\n      mstore\n      0x40\n      swap2\n      dup3\n      swap1\n      keccak256\n        /* \"FARMING/library/Whitelist.sol\":808:834  _whitelist[_address] = _on */\n      dup1\n      sload\n      not(0xff)\n      and\n      dup6\n      iszero\n      iszero\n      swap1\n      dup2\n      or\n      swap1\n      swap2\n      sstore\n        /* \"FARMING/library/Whitelist.sol\":852:878  Whitelisted(_address, _on) */\n      dup3\n      mload\n      swap1\n      dup2\n      mstore\n      swap2\n      mload\n      0xa54714518c5d275fdcd3d2a461e4858e4e8cb04fb93cd0bca9d6d34115f26440\n      swap3\n      dup2\n      swap1\n      sub\n      swap1\n      swap2\n      add\n      swap1\n      log2\n        /* \"FARMING/library/Whitelist.sol\":728:886  function setWhitelist(address _address, bool _on) external onlyOwner {\r... */\n      pop\n      pop\n      jump\t// out\n        /* \"FARMING/access/Ownable.sol\":1752:1892  function renounceOwnership() public onlyOwner {\r... */\n    tag_16:\n        /* \"FARMING/access/Ownable.sol\":1332:1344  _msgSender() */\n      tag_37\n        /* \"FARMING/access/Ownable.sol\":1332:1342  _msgSender */\n      tag_27\n        /* \"FARMING/access/Ownable.sol\":1332:1344  _msgSender() */\n      jump\t// in\n    tag_37:\n        /* \"FARMING/access/Ownable.sol\":1322:1328  _owner */\n      sload(0x00)\n      sub(shl(0xa0, 0x01), 0x01)\n      swap1\n      dup2\n      and\n        /* \"FARMING/access/Ownable.sol\":1322:1344  _owner == _msgSender() */\n      swap2\n      and\n      eq\n        /* \"FARMING/access/Ownable.sol\":1314:1381  require(_owner == _msgSender(), 'Ownable: caller is not the owner') */\n      tag_38\n      jumpi\n      0x40\n      dup1\n      mload\n      shl(0xe5, 0x461bcd)\n      dup2\n      mstore\n      0x20\n      0x04\n      dup3\n      add\n      dup2\n      swap1\n      mstore\n      0x24\n      dup3\n      add\n      mstore\n      0x00\n      dup1\n      mload\n      0x20\n      data_9924ebdf1add33d25d4ef888e16131f0a5687b0580a36c21b5c301a6c462effe\n      dup4\n      codecopy\n      dup2\n      mload\n      swap2\n      mstore\n      0x44\n      dup3\n      add\n      mstore\n      swap1\n      mload\n      swap1\n      dup2\n      swap1\n      sub\n      0x64\n      add\n      swap1\n      revert\n    tag_38:\n        /* \"FARMING/access/Ownable.sol\":1851:1852  0 */\n      0x00\n        /* \"FARMING/access/Ownable.sol\":1835:1841  _owner */\n      dup1\n      sload\n        /* \"FARMING/access/Ownable.sol\":1814:1854  OwnershipTransferred(_owner, address(0)) */\n      mload(0x40)\n      sub(shl(0xa0, 0x01), 0x01)\n        /* \"FARMING/access/Ownable.sol\":1835:1841  _owner */\n      swap1\n      swap2\n      and\n      swap1\n        /* \"FARMING/access/Ownable.sol\":1814:1854  OwnershipTransferred(_owner, address(0)) */\n      0x8be0079c531659141344cd1fd0a4f28419497f9722a3daafe3b4186f6b6457e0\n      swap1\n        /* \"FARMING/access/Ownable.sol\":1851:1852  0 */\n      dup4\n      swap1\n        /* \"FARMING/access/Ownable.sol\":1814:1854  OwnershipTransferred(_owner, address(0)) */\n      log3\n        /* \"FARMING/access/Ownable.sol\":1882:1883  0 */\n      0x00\n        /* \"FARMING/access/Ownable.sol\":1865:1884  _owner = address(0) */\n      dup1\n      sload\n      not(sub(shl(0xa0, 0x01), 0x01))\n      and\n      swap1\n      sstore\n        /* \"FARMING/access/Ownable.sol\":1752:1892  function renounceOwnership() public onlyOwner {\r... */\n      jump\t// out\n        /* \"FARMING/access/Ownable.sol\":1110:1189  function owner() public view returns (address) {\r... */\n    tag_18:\n        /* \"FARMING/access/Ownable.sol\":1148:1155  address */\n      0x00\n        /* \"FARMING/access/Ownable.sol\":1175:1181  _owner */\n      sload\n      sub(shl(0xa0, 0x01), 0x01)\n      and\n        /* \"FARMING/access/Ownable.sol\":1110:1189  function owner() public view returns (address) {\r... */\n      swap1\n      jump\t// out\n        /* \"FARMING/library/Whitelist.sol\":608:720  function isWhitelist(address _address) public view returns (bool) {\r... */\n    tag_21:\n      sub(shl(0xa0, 0x01), 0x01)\n        /* \"FARMING/library/Whitelist.sol\":692:712  _whitelist[_address] */\n      and\n        /* \"FARMING/library/Whitelist.sol\":668:672  bool */\n      0x00\n        /* \"FARMING/library/Whitelist.sol\":692:712  _whitelist[_address] */\n      swap1\n      dup2\n      mstore\n        /* \"FARMING/library/Whitelist.sol\":692:702  _whitelist */\n      0x01\n        /* \"FARMING/library/Whitelist.sol\":692:712  _whitelist[_address] */\n      0x20\n      mstore\n      0x40\n      swap1\n      keccak256\n      sload\n      0xff\n      and\n      swap1\n        /* \"FARMING/library/Whitelist.sol\":608:720  function isWhitelist(address _address) public view returns (bool) {\r... */\n      jump\t// out\n        /* \"FARMING/access/Ownable.sol\":2047:2156  function transferOwnership(address newOwner) public onlyOwner {\r... */\n    tag_24:\n        /* \"FARMING/access/Ownable.sol\":1332:1344  _msgSender() */\n      tag_43\n        /* \"FARMING/access/Ownable.sol\":1332:1342  _msgSender */\n      tag_27\n        /* \"FARMING/access/Ownable.sol\":1332:1344  _msgSender() */\n      jump\t// in\n    tag_43:\n        /* \"FARMING/access/Ownable.sol\":1322:1328  _owner */\n      sload(0x00)\n      sub(shl(0xa0, 0x01), 0x01)\n      swap1\n      dup2\n      and\n        /* \"FARMING/access/Ownable.sol\":1322:1344  _owner == _msgSender() */\n      swap2\n      and\n      eq\n        /* \"FARMING/access/Ownable.sol\":1314:1381  require(_owner == _msgSender(), 'Ownable: caller is not the owner') */\n      tag_44\n      jumpi\n      0x40\n      dup1\n      mload\n      shl(0xe5, 0x461bcd)\n      dup2\n      mstore\n      0x20\n      0x04\n      dup3\n      add\n      dup2\n      swap1\n      mstore\n      0x24\n      dup3\n      add\n      mstore\n      0x00\n      dup1\n      mload\n      0x20\n      data_9924ebdf1add33d25d4ef888e16131f0a5687b0580a36c21b5c301a6c462effe\n      dup4\n      codecopy\n      dup2\n      mload\n      swap2\n      mstore\n      0x44\n      dup3\n      add\n      mstore\n      swap1\n      mload\n      swap1\n      dup2\n      swap1\n      sub\n      0x64\n      add\n      swap1\n      revert\n    tag_44:\n        /* \"FARMING/access/Ownable.sol\":2120:2148  _transferOwnership(newOwner) */\n      tag_31\n        /* \"FARMING/access/Ownable.sol\":2139:2147  newOwner */\n      dup2\n        /* \"FARMING/access/Ownable.sol\":2120:2138  _transferOwnership */\n      tag_47\n        /* \"FARMING/access/Ownable.sol\":2120:2148  _transferOwnership(newOwner) */\n      jump\t// in\n        /* \"FARMING/access/Context.sol\":799:897  function _msgSender() internal view returns (address payable) {\r... */\n    tag_27:\n        /* \"FARMING/access/Context.sol\":879:889  msg.sender */\n      caller\n        /* \"FARMING/access/Context.sol\":799:897  function _msgSender() internal view returns (address payable) {\r... */\n      swap1\n      jump\t// out\n        /* \"FARMING/access/Ownable.sol\":2262:2491  function _transferOwnership(address newOwner) internal {\r... */\n    tag_47:\n      sub(shl(0xa0, 0x01), 0x01)\n        /* \"FARMING/access/Ownable.sol\":2336:2358  newOwner != address(0) */\n      dup2\n      and\n        /* \"FARMING/access/Ownable.sol\":2328:2401  require(newOwner != address(0), 'Ownable: new owner is the zero address') */\n      tag_50\n      jumpi\n      mload(0x40)\n      shl(0xe5, 0x461bcd)\n      dup2\n      mstore\n      0x04\n      add\n      dup1\n      dup1\n      0x20\n      add\n      dup3\n      dup2\n      sub\n      dup3\n      mstore\n      0x26\n      dup2\n      mstore\n      0x20\n      add\n      dup1\n      data_245f15ff17f551913a7a18385165551503906a406f905ac1c2437281a7cd0cfe\n      0x26\n      swap2\n      codecopy\n      0x40\n      add\n      swap2\n      pop\n      pop\n      mload(0x40)\n      dup1\n      swap2\n      sub\n      swap1\n      revert\n    tag_50:\n        /* \"FARMING/access/Ownable.sol\":2438:2444  _owner */\n      0x00\n      dup1\n      sload\n        /* \"FARMING/access/Ownable.sol\":2417:2455  OwnershipTransferred(_owner, newOwner) */\n      mload(0x40)\n      sub(shl(0xa0, 0x01), 0x01)\n      dup1\n      dup6\n      and\n      swap4\n        /* \"FARMING/access/Ownable.sol\":2438:2444  _owner */\n      swap3\n      and\n      swap2\n        /* \"FARMING/access/Ownable.sol\":2417:2455  OwnershipTransferred(_owner, newOwner) */\n      0x8be0079c531659141344cd1fd0a4f28419497f9722a3daafe3b4186f6b6457e0\n      swap2\n      log3\n        /* \"FARMING/access/Ownable.sol\":2466:2472  _owner */\n      0x00\n        /* \"FARMING/access/Ownable.sol\":2466:2483  _owner = newOwner */\n      dup1\n      sload\n      not(sub(shl(0xa0, 0x01), 0x01))\n      and\n      sub(shl(0xa0, 0x01), 0x01)\n      swap3\n      swap1\n      swap3\n      and\n      swap2\n      swap1\n      swap2\n      or\n      swap1\n      sstore\n        /* \"FARMING/access/Ownable.sol\":2262:2491  function _transferOwnership(address newOwner) internal {\r... */\n      jump\t// out\n    stop\n    data_245f15ff17f551913a7a18385165551503906a406f905ac1c2437281a7cd0cfe 4f776e61626c653a206e6577206f776e657220697320746865207a65726f2061646472657373\n    data_9924ebdf1add33d25d4ef888e16131f0a5687b0580a36c21b5c301a6c462effe 4f776e61626c653a2063616c6c6572206973206e6f7420746865206f776e6572\n\n    auxdata: 0xa2646970667358221220be0bf67c28572153439087af6f978b53b29943f16017096640f11d8e2c57d38864736f6c634300060c0033\n}\n",
				"bytecode": {
					"linkReferences": {},
					"object": "608060405234801561001057600080fd5b50600061001b61006a565b600080546001600160a01b0319166001600160a01b0383169081178255604051929350917f8be0079c531659141344cd1fd0a4f28419497f9722a3daafe3b4186f6b6457e0908290a35061006e565b3390565b6105148061007d6000396000f3fe608060405234801561001057600080fd5b50600436106100625760003560e01c806349ba1b491461006757806353d6fd5914610088578063715018a6146100b65780638da5cb5b146100be578063c683630d146100e2578063f2fde38b1461011c575b600080fd5b6100866004803603602081101561007d57600080fd5b50351515610142565b005b6100866004803603604081101561009e57600080fd5b506001600160a01b038135169060200135151561020c565b6100866102c4565b6100c6610366565b604080516001600160a01b039092168252519081900360200190f35b610108600480360360208110156100f857600080fd5b50356001600160a01b0316610375565b604080519115158252519081900360200190f35b6100866004803603602081101561013257600080fd5b50356001600160a01b0316610393565b61014a6103f4565b6000546001600160a01b0390811691161461019a576040805162461bcd60e51b815260206004820181905260248201526000805160206104bf833981519152604482015290519081900360640190fd5b6002805460ff191682158015919091179091556101df576040517f508560e15717a4e9058b9a19d806cb679004a1bd953376f71fda71c141e5dc5390600090a1610209565b6040517fa2927d972f7cfc5ff8b7ad79f9adf0bdb885d0e569f40d0037df2e1299616ae090600090a15b50565b6102146103f4565b6000546001600160a01b03908116911614610264576040805162461bcd60e51b815260206004820181905260248201526000805160206104bf833981519152604482015290519081900360640190fd5b6001600160a01b038216600081815260016020908152604091829020805460ff1916851515908117909155825190815291517fa54714518c5d275fdcd3d2a461e4858e4e8cb04fb93cd0bca9d6d34115f264409281900390910190a25050565b6102cc6103f4565b6000546001600160a01b0390811691161461031c576040805162461bcd60e51b815260206004820181905260248201526000805160206104bf833981519152604482015290519081900360640190fd5b600080546040516001600160a01b03909116907f8be0079c531659141344cd1fd0a4f28419497f9722a3daafe3b4186f6b6457e0908390a3600080546001600160a01b0319169055565b6000546001600160a01b031690565b6001600160a01b031660009081526001602052604090205460ff1690565b61039b6103f4565b6000546001600160a01b039081169116146103eb576040805162461bcd60e51b815260206004820181905260248201526000805160206104bf833981519152604482015290519081900360640190fd5b610209816103f8565b3390565b6001600160a01b03811661043d5760405162461bcd60e51b81526004018080602001828103825260268152602001806104996026913960400191505060405180910390fd5b600080546040516001600160a01b03808516939216917f8be0079c531659141344cd1fd0a4f28419497f9722a3daafe3b4186f6b6457e091a3600080546001600160a01b0319166001600160a01b039290921691909117905556fe4f776e61626c653a206e6577206f776e657220697320746865207a65726f20616464726573734f776e61626c653a2063616c6c6572206973206e6f7420746865206f776e6572a2646970667358221220be0bf67c28572153439087af6f978b53b29943f16017096640f11d8e2c57d38864736f6c634300060c0033",
					"opcodes": "PUSH1 0x80 PUSH1 0x40 MSTORE CALLVALUE DUP1 ISZERO PUSH2 0x10 JUMPI PUSH1 0x0 DUP1 REVERT JUMPDEST POP PUSH1 0x0 PUSH2 0x1B PUSH2 0x6A JUMP JUMPDEST PUSH1 0x0 DUP1 SLOAD PUSH1 0x1 PUSH1 0x1 PUSH1 0xA0 SHL SUB NOT AND PUSH1 0x1 PUSH1 0x1 PUSH1 0xA0 SHL SUB DUP4 AND SWAP1 DUP2 OR DUP3 SSTORE PUSH1 0x40 MLOAD SWAP3 SWAP4 POP SWAP2 PUSH32 0x8BE0079C531659141344CD1FD0A4F28419497F9722A3DAAFE3B4186F6B6457E0 SWAP1 DUP3 SWAP1 LOG3 POP PUSH2 0x6E JUMP JUMPDEST CALLER SWAP1 JUMP JUMPDEST PUSH2 0x514 DUP1 PUSH2 0x7D PUSH1 0x0 CODECOPY PUSH1 0x0 RETURN INVALID PUSH1 0x80 PUSH1 0x40 MSTORE CALLVALUE DUP1 ISZERO PUSH2 0x10 JUMPI PUSH1 0x0 DUP1 REVERT JUMPDEST POP PUSH1 0x4 CALLDATASIZE LT PUSH2 0x62 JUMPI PUSH1 0x0 CALLDATALOAD PUSH1 0xE0 SHR DUP1 PUSH4 0x49BA1B49 EQ PUSH2 0x67 JUMPI DUP1 PUSH4 0x53D6FD59 EQ PUSH2 0x88 JUMPI DUP1 PUSH4 0x715018A6 EQ PUSH2 0xB6 JUMPI DUP1 PUSH4 0x8DA5CB5B EQ PUSH2 0xBE JUMPI DUP1 PUSH4 0xC683630D EQ PUSH2 0xE2 JUMPI DUP1 PUSH4 0xF2FDE38B EQ PUSH2 0x11C JUMPI JUMPDEST PUSH1 0x0 DUP1 REVERT JUMPDEST PUSH2 0x86 PUSH1 0x4 DUP1 CALLDATASIZE SUB PUSH1 0x20 DUP2 LT ISZERO PUSH2 0x7D JUMPI PUSH1 0x0 DUP1 REVERT JUMPDEST POP CALLDATALOAD ISZERO ISZERO PUSH2 0x142 JUMP JUMPDEST STOP JUMPDEST PUSH2 0x86 PUSH1 0x4 DUP1 CALLDATASIZE SUB PUSH1 0x40 DUP2 LT ISZERO PUSH2 0x9E JUMPI PUSH1 0x0 DUP1 REVERT JUMPDEST POP PUSH1 0x1 PUSH1 0x1 PUSH1 0xA0 SHL SUB DUP2 CALLDATALOAD AND SWAP1 PUSH1 0x20 ADD CALLDATALOAD ISZERO ISZERO PUSH2 0x20C JUMP JUMPDEST PUSH2 0x86 PUSH2 0x2C4 JUMP JUMPDEST PUSH2 0xC6 PUSH2 0x366 JUMP JUMPDEST PUSH1 0x40 DUP1 MLOAD PUSH1 0x1 PUSH1 0x1 PUSH1 0xA0 SHL SUB SWAP1 SWAP3 AND DUP3 MSTORE MLOAD SWAP1 DUP2 SWAP1 SUB PUSH1 0x20 ADD SWAP1 RETURN JUMPDEST PUSH2 0x108 PUSH1 0x4 DUP1 CALLDATASIZE SUB PUSH1 0x20 DUP2 LT ISZERO PUSH2 0xF8 JUMPI PUSH1 0x0 DUP1 REVERT JUMPDEST POP CALLDATALOAD PUSH1 0x1 PUSH1 0x1 PUSH1 0xA0 SHL SUB AND PUSH2 0x375 JUMP JUMPDEST PUSH1 0x40 DUP1 MLOAD SWAP2 ISZERO ISZERO DUP3 MSTORE MLOAD SWAP1 DUP2 SWAP1 SUB PUSH1 0x20 ADD SWAP1 RETURN JUMPDEST PUSH2 0x86 PUSH1 0x4 DUP1 CALLDATASIZE SUB PUSH1 0x20 DUP2 LT ISZERO PUSH2 0x132 JUMPI PUSH1 0x0 DUP1 REVERT JUMPDEST POP CALLDATALOAD PUSH1 0x1 PUSH1 0x1 PUSH1 0xA0 SHL SUB AND PUSH2 0x393 JUMP JUMPDEST PUSH2 0x14A PUSH2 0x3F4 JUMP JUMPDEST PUSH1 0x0 SLOAD PUSH1 0x1 PUSH1 0x1 PUSH1 0xA0 SHL SUB SWAP1 DUP2 AND SWAP2 AND EQ PUSH2 0x19A JUMPI PUSH1 0x40 DUP1 MLOAD PUSH3 0x461BCD PUSH1 0xE5 SHL DUP2 MSTORE PUSH1 0x20 PUSH1 0x4 DUP3 ADD DUP2 SWAP1 MSTORE PUSH1 0x24 DUP3 ADD MSTORE PUSH1 0x0 DUP1 MLOAD PUSH1 0x20 PUSH2 0x4BF DUP4 CODECOPY DUP2 MLOAD SWAP2 MSTORE PUSH1 0x44 DUP3 ADD MSTORE SWAP1 MLOAD SWAP1 DUP2 SWAP1 SUB PUSH1 0x64 ADD SWAP1 REVERT JUMPDEST PUSH1 0x2 DUP1 SLOAD PUSH1 0xFF NOT AND DUP3 ISZERO DUP1 ISZERO SWAP2 SWAP1 SWAP2 OR SWAP1 SWAP2 SSTORE PUSH2 0x1DF JUMPI PUSH1 0x40 MLOAD PUSH32 0x508560E15717A4E9058B9A19D806CB679004A1BD953376F71FDA71C141E5DC53 SWAP1 PUSH1 0x0 SWAP1 LOG1 PUSH2 0x209 JUMP JUMPDEST PUSH1 0x40 MLOAD PUSH32 0xA2927D972F7CFC5FF8B7AD79F9ADF0BDB885D0E569F40D0037DF2E1299616AE0 SWAP1 PUSH1 0x0 SWAP1 LOG1 JUMPDEST POP JUMP JUMPDEST PUSH2 0x214 PUSH2 0x3F4 JUMP JUMPDEST PUSH1 0x0 SLOAD PUSH1 0x1 PUSH1 0x1 PUSH1 0xA0 SHL SUB SWAP1 DUP2 AND SWAP2 AND EQ PUSH2 0x264 JUMPI PUSH1 0x40 DUP1 MLOAD PUSH3 0x461BCD PUSH1 0xE5 SHL DUP2 MSTORE PUSH1 0x20 PUSH1 0x4 DUP3 ADD DUP2 SWAP1 MSTORE PUSH1 0x24 DUP3 ADD MSTORE PUSH1 0x0 DUP1 MLOAD PUSH1 0x20 PUSH2 0x4BF DUP4 CODECOPY DUP2 MLOAD SWAP2 MSTORE PUSH1 0x44 DUP3 ADD MSTORE SWAP1 MLOAD SWAP1 DUP2 SWAP1 SUB PUSH1 0x64 ADD SWAP1 REVERT JUMPDEST PUSH1 0x1 PUSH1 0x1 PUSH1 0xA0 SHL SUB DUP3 AND PUSH1 0x0 DUP2 DUP2 MSTORE PUSH1 0x1 PUSH1 0x20 SWAP1 DUP2 MSTORE PUSH1 0x40 SWAP2 DUP3 SWAP1 KECCAK256 DUP1 SLOAD PUSH1 0xFF NOT AND DUP6 ISZERO ISZERO SWAP1 DUP2 OR SWAP1 SWAP2 SSTORE DUP3 MLOAD SWAP1 DUP2 MSTORE SWAP2 MLOAD PUSH32 0xA54714518C5D275FDCD3D2A461E4858E4E8CB04FB93CD0BCA9D6D34115F26440 SWAP3 DUP2 SWAP1 SUB SWAP1 SWAP2 ADD SWAP1 LOG2 POP POP JUMP JUMPDEST PUSH2 0x2CC PUSH2 0x3F4 JUMP JUMPDEST PUSH1 0x0 SLOAD PUSH1 0x1 PUSH1 0x1 PUSH1 0xA0 SHL SUB SWAP1 DUP2 AND SWAP2 AND EQ PUSH2 0x31C JUMPI PUSH1 0x40 DUP1 MLOAD PUSH3 0x461BCD PUSH1 0xE5 SHL DUP2 MSTORE PUSH1 0x20 PUSH1 0x4 DUP3 ADD DUP2 SWAP1 MSTORE PUSH1 0x24 DUP3 ADD MSTORE PUSH1 0x0 DUP1 MLOAD PUSH1 0x20 PUSH2 0x4BF DUP4 CODECOPY DUP2 MLOAD SWAP2 MSTORE PUSH1 0x44 DUP3 ADD MSTORE SWAP1 MLOAD SWAP1 DUP2 SWAP1 SUB PUSH1 0x64 ADD SWAP1 REVERT JUMPDEST PUSH1 0x0 DUP1 SLOAD PUSH1 0x40 MLOAD PUSH1 0x1 PUSH1 0x1 PUSH1 0xA0 SHL SUB SWAP1 SWAP2 AND SWAP1 PUSH32 0x8BE0079C531659141344CD1FD0A4F28419497F9722A3DAAFE3B4186F6B6457E0 SWAP1 DUP4 SWAP1 LOG3 PUSH1 0x0 DUP1 SLOAD PUSH1 0x1 PUSH1 0x1 PUSH1 0xA0 SHL SUB NOT AND SWAP1 SSTORE JUMP JUMPDEST PUSH1 0x0 SLOAD PUSH1 0x1 PUSH1 0x1 PUSH1 0xA0 SHL SUB AND SWAP1 JUMP JUMPDEST PUSH1 0x1 PUSH1 0x1 PUSH1 0xA0 SHL SUB AND PUSH1 0x0 SWAP1 DUP2 MSTORE PUSH1 0x1 PUSH1 0x20 MSTORE PUSH1 0x40 SWAP1 KECCAK256 SLOAD PUSH1 0xFF AND SWAP1 JUMP JUMPDEST PUSH2 0x39B PUSH2 0x3F4 JUMP JUMPDEST PUSH1 0x0 SLOAD PUSH1 0x1 PUSH1 0x1 PUSH1 0xA0 SHL SUB SWAP1 DUP2 AND SWAP2 AND EQ PUSH2 0x3EB JUMPI PUSH1 0x40 DUP1 MLOAD PUSH3 0x461BCD PUSH1 0xE5 SHL DUP2 MSTORE PUSH1 0x20 PUSH1 0x4 DUP3 ADD DUP2 SWAP1 MSTORE PUSH1 0x24 DUP3 ADD MSTORE PUSH1 0x0 DUP1 MLOAD PUSH1 0x20 PUSH2 0x4BF DUP4 CODECOPY DUP2 MLOAD SWAP2 MSTORE PUSH1 0x44 DUP3 ADD MSTORE SWAP1 MLOAD SWAP1 DUP2 SWAP1 SUB PUSH1 0x64 ADD SWAP1 REVERT JUMPDEST PUSH2 0x209 DUP2 PUSH2 0x3F8 JUMP JUMPDEST CALLER SWAP1 JUMP JUMPDEST PUSH1 0x1 PUSH1 0x1 PUSH1 0xA0 SHL SUB DUP2 AND PUSH2 0x43D JUMPI PUSH1 0x40 MLOAD PUSH3 0x461BCD PUSH1 0xE5 SHL DUP2 MSTORE PUSH1 0x4 ADD DUP1 DUP1 PUSH1 0x20 ADD DUP3 DUP2 SUB DUP3 MSTORE PUSH1 0x26 DUP2 MSTORE PUSH1 0x20 ADD DUP1 PUSH2 0x499 PUSH1 0x26 SWAP2 CODECOPY PUSH1 0x40 ADD SWAP2 POP POP PUSH1 0x40 MLOAD DUP1 SWAP2 SUB SWAP1 REVERT JUMPDEST PUSH1 0x0 DUP1 SLOAD PUSH1 0x40 MLOAD PUSH1 0x1 PUSH1 0x1 PUSH1 0xA0 SHL SUB DUP1 DUP6 AND SWAP4 SWAP3 AND SWAP2 PUSH32 0x8BE0079C531659141344CD1FD0A4F28419497F9722A3DAAFE3B4186F6B6457E0 SWAP2 LOG3 PUSH1 0x0 DUP1 SLOAD PUSH1 0x1 PUSH1 0x1 PUSH1 0xA0 SHL SUB NOT AND PUSH1 0x1 PUSH1 0x1 PUSH1 0xA0 SHL SUB SWAP3 SWAP1 SWAP3 AND SWAP2 SWAP1 SWAP2 OR SWAP1 SSTORE JUMP INVALID 0x4F PUSH24 0x6E61626C653A206E6577206F776E65722069732074686520 PUSH27 0x65726F20616464726573734F776E61626C653A2063616C6C657220 PUSH10 0x73206E6F742074686520 PUSH16 0x776E6572A2646970667358221220BE0B 0xF6 PUSH29 0x28572153439087AF6F978B53B29943F16017096640F11D8E2C57D38864 PUSH20 0x6F6C634300060C00330000000000000000000000 "
				},
				"gasEstimates": {
					"creation": {
						"codeDepositCost": "260000",
						"executionCost": "22735",
						"totalCost": "282735"
					},
					"external": {
						"disableWhitelist(bool)": "infinite",
						"isWhitelist(address)": "1220",
						"owner()": "1081",
						"renounceOwnership()": "infinite",
						"setWhitelist(address,bool)": "infinite",
						"transferOwnership(address)": "infinite"
					}
				},
				"methodIdentifiers": {
					"disableWhitelist(bool)": "49ba1b49",
					"isWhitelist(address)": "c683630d",
					"owner()": "8da5cb5b",
					"renounceOwnership()": "715018a6",
					"setWhitelist(address,bool)": "53d6fd59",
					"transferOwnership(address)": "f2fde38b"
				}
			},
			"storageLayout": {
				"storage": [
					{
						"astId": 34,
						"contract": "FARMING/library/Whitelist.sol:Whitelist",
						"label": "_owner",
						"offset": 0,
						"slot": "0",
						"type": "t_address"
					},
					{
						"astId": 155,
						"contract": "FARMING/library/Whitelist.sol:Whitelist",
						"label": "_whitelist",
						"offset": 0,
						"slot": "1",
						"type": "t_mapping(t_address,t_bool)"
					},
					{
						"astId": 157,
						"contract": "FARMING/library/Whitelist.sol:Whitelist",
						"label": "_disable",
						"offset": 0,
						"slot": "2",
						"type": "t_bool"
					}
				],
				"types": {
					"t_address": {
						"encoding": "inplace",
						"label": "address",
						"numberOfBytes": "20"
					},
					"t_bool": {
						"encoding": "inplace",
						"label": "bool",
						"numberOfBytes": "1"
					},
					"t_mapping(t_address,t_bool)": {
						"encoding": "mapping",
						"key": "t_address",
						"label": "mapping(address => bool)",
						"numberOfBytes": "32",
						"value": "t_bool"
					}
				}
			},
			"userdoc": {
				"kind": "user",
				"methods": {},
				"version": 1
			}
		}
	}
}